:020000040802F0
:100000000000022065B4040889B903088FB9030809
:1000100095B903089BB90308A1B9030800000000C3
:1000200000000000000000000000000081F603084E
:10003000A7B9030800000000D1F8030839F9030844
:10004000B5B40408B5B40408B5B40408B5B40408DC
:10005000B5B90308B5B40408D5B90308E3B9030872
:10006000F1B90308FFB903080DBA030875BA03080C
:1000700089BA030899BA0308ADBA0308C1BA0308DC
:10008000D5BA0308E9BA030895BB0308A9BB03085E
:10009000BDBB0308D1BB0308E5BB03081BBA0308BB
:1000A00039BD03084DBD030879BD0308B5B4040884
:1000B000C1BC0308D5BC0308E9BC030849BC03085C
:1000C000B5B404085DBC0308B5B4040885BC0308D6
:1000D00099BC0308B5B40408B5B40408B5B4040861
:1000E00045BA0308B5B40408B5B404088DBD0308C7
:1000F000A1BD0308CDBD0308B5B40408FDBA0308CB
:10010000B5B40408B5B40408FDBC0308ADBC0308CD
:10011000B5B40408B5B4040811BD030825BD03082F
:1001200011BB030825BB030833BB030841BB03080D
:1001300055BB0308B5B40408B5B40408F9BB0308FB
:100140000DBC030821BC030835BC0308C1B9030872
:1001500069BB030877BB030885BB0308B5B4040873
:1001600071BC0308B5B40408B5B40408B5B40408F8
:10017000B5B40408B5B40408B5B404080000000020
:08018000B5B40408B5B404088D
:1001900010B5054C237833B9044B13B10448AFF3C1
:1001A00000800123237010BD5C07002000000000C8
:1001B000E4C3040808B5034B1BB103490348AFF37C
:1001C000008008BD0000000060070020E4C30408B0
:1001D00081F0004102E000BF83F0004330B54FEAF8
:1001E00041044FEA430594EA050F08BF90EA020F65
:1001F0001FBF54EA000C55EA020C7FEA645C7FEAF8
:10020000655C00F0E2804FEA5454D4EB5555B8BF1A
:100210006D420CDD2C4480EA020281EA030382EA8B
:10022000000083EA010180EA020281EA0303362D1D
:1002300088BF30BD11F0004F4FEA01314FF4801CF0
:100240004CEA113102D0404261EB410113F0004F02
:100250004FEA03334CEA133302D0524263EB4303B9
:1002600094EA050F00F0A780A4F10104D5F1200E57
:100270000DDB02FA0EFC22FA05F2801841F10001B2
:1002800003FA0EF2801843FA05F359410EE0A5F186
:1002900020050EF1200E012A03FA0EFC28BF4CF0B7
:1002A000020C43FA05F3C01851EBE37101F000456D
:1002B00007D54FF0000EDCF1000C7EEB00006EEB7A
:1002C0000101B1F5801F1BD3B1F5001F0CD3490804
:1002D0005FEA30004FEA3C0C04F101044FEA44525B
:1002E00012F5800F80F09A80BCF1004F08BF5FEAE2
:1002F000500C50F1000041EB045141EA050130BDC2
:100300005FEA4C0C404141EB0101013C28BFB1F5D3
:10031000801FE9D291F0000F04BF01460020B1FA1E
:1003200081F308BF2033A3F10B03B3F120020CDAF1
:100330000C3208DD02F1140CC2F10C0201FA0CF0CF
:1003400021FA02F10CE002F11402D8BFC2F1200C34
:1003500001FA02F120FA0CFCDCBF41EA0C019040EA
:10036000E41AA2BF01EB0451294330BD6FEA040433
:100370001F3C1CDA0C340EDC04F11404C4F120021E
:1003800020FA04F001FA02F340EA030021FA04F330
:1003900045EA030130BDC4F10C04C4F1200220FA87
:1003A00002F001FA04F340EA0300294630BD21FAC5
:1003B00004F0294630BD94F0000F83F4801306BF8B
:1003C00081F480110134013D4EE77FEA645C18BF7F
:1003D0007FEA655C29D094EA050F08BF90EA020F16
:1003E00005D054EA000C04BF1946104630BD91EA0E
:1003F000030F1EBF0021002030BD5FEA545C05D111
:100400004000494128BF41F0004130BD14F580044F
:100410003CBF01F5801130BD01F0004545F0FE41C3
:1004200041F470014FF0000030BD7FEA645C1ABFF8
:10043000194610467FEA655C1CBF0B46024650EA2F
:10044000013406BF52EA033591EA030F41F400215B
:1004500030BD00BF90F0000F04BF0021704730B5E1
:100460004FF4806404F132044FF000054FF00001B6
:1004700050E700BF90F0000F04BF0021704730B577
:100480004FF4806404F1320410F0004548BF40424C
:100490004FF000013EE700BF42004FEAE2014FEAA1
:1004A00031014FEA02701FBF12F07F4393F07F4F7C
:1004B00081F06051704732F07F4208BF704793F07F
:1004C0007F4F04BF41F40021704730B54FF4607492
:1004D00001F0004521F000411CE700BF50EA010295
:1004E00008BF704730B54FF000050AE050EA01023E
:1004F00008BF704730B511F0004502D5404261EBAE
:1005000041014FF4806404F132045FEA915C3FF4EE
:10051000D8AE4FF003025FEADC0C18BF03325FEA8B
:10052000DC0C18BF033202EBDC02C2F1200300FA3C
:1005300003FC20FA02F001FA03FE40EA0E0021FA61
:1005400002F11444BDE600BF70B54FF0FF0C4CF44F
:10055000E06C1CEA11541DBF1CEA135594EA0C0F01
:1005600095EA0C0F00F0DEF82C4481EA030621EA3C
:100570004C5123EA4C5350EA013518BF52EA033577
:1005800041F4801143F4801338D0A0FB02CE4FF029
:100590000005E1FB02E506F00042E0FB03E54FF059
:1005A0000006E1FB03569CF0000F18BF4EF0010E51
:1005B000A4F1FF04B6F5007F64F5407404D25FEA4D
:1005C0004E0E6D4146EB060642EAC62141EA555100
:1005D0004FEAC52040EA5E504FEACE2EB4F1FD0C42
:1005E00088BFBCF5E06F1ED8BEF1004F08BF5FEAC0
:1005F000500E50F1000041EB045170BD06F0004672
:1006000046EA010140EA020081EA0301B4EB5C041E
:10061000C2BFD4EB0C0541EA045170BD41F4801116
:100620004FF0000E013C00F3AB8014F1360FDEBF3B
:10063000002001F0004170BDC4F10004203C35DA17
:100640000C341BDC04F11404C4F1200500FA05F39A
:1006500020FA04F001FA05F240EA020001F000423B
:1006600021F0004110EBD37021FA04F642EB0601B1
:100670005EEA430E08BF20EAD37070BDC4F10C04DB
:10068000C4F1200500FA04F320FA05F001FA04F29F
:1006900040EA020001F0004110EBD37041F100018B
:1006A0005EEA430E08BF20EAD37070BDC4F1200596
:1006B00000FA05F24EEA020E20FA04F301FA05F2FE
:1006C00043EA020321FA04F001F0004121FA04F2A6
:1006D00020EA020000EBD3705EEA430E08BF20EA76
:1006E000D37070BD94F0000F0FD101F000464000B0
:1006F00041EB010111F4801F08BF013CF7D041EA32
:10070000060195F0000F18BF704703F00046520035
:1007100043EB030313F4801F08BF013DF7D043EA06
:100720000603704794EA0C0F0CEA135518BF95EABC
:100730000C0F0CD050EA410618BF52EA4306D1D143
:1007400081EA030101F000414FF0000070BD50EA62
:10075000410606BF1046194652EA430619D094EAEC
:100760000C0F02D150EA013613D195EA0C0F05D1D6
:1007700052EA03361CBF104619460AD181EA03012A
:1007800001F0004141F0FE4141F470014FF00000E2
:1007900070BD41F0FE4141F4780170BD70B54FF07D
:1007A000FF0C4CF4E06C1CEA11541DBF1CEA1355FD
:1007B00094EA0C0F95EA0C0F00F0A7F8A4EB0504DF
:1007C00081EA030E52EA03354FEA013100F08880D6
:1007D0004FEA03334FF0805545EA131343EA12639F
:1007E0004FEA022245EA111545EA10654FEA002654
:1007F0000EF000419D4208BF964244F1FD0404F50D
:10080000407402D25B084FEA3202B61A65EB030568
:100810005B084FEA32024FF480104FF4002CB6EB25
:10082000020E75EB030E22BFB61A754640EA0C00A5
:100830005B084FEA3202B6EB020E75EB030E22BFE5
:10084000B61A754640EA5C005B084FEA3202B6EB26
:10085000020E75EB030E22BFB61A754640EA9C00E5
:100860005B084FEA3202B6EB020E75EB030E22BFB5
:10087000B61A754640EADC0055EA060E18D04FEA73
:10088000051545EA16754FEA06164FEAC30343EA13
:1008900052734FEAC2025FEA1C1CC0D111F4801FE0
:1008A0000BD141EA00014FF000004FF0004CB6E7D9
:1008B00011F4801F04BF01430020B4F1FD0C88BF78
:1008C000BCF5E06F3FF6AFAEB5EB030C04BFB6EB83
:1008D000020C5FEA500C50F1000041EB045170BD76
:1008E0000EF0004E4EEA113114EB5C04C2BFD4EBA3
:1008F0000C0541EA045170BD41F480114FF0000E27
:10090000013C90E645EA060E8DE60CEA135594EAA2
:100910000C0F08BF95EA0C0F3FF43BAF94EA0C0FA5
:100920000AD150EA01347FF434AF95EA0C0F7FF41A
:1009300025AF104619462CE795EA0C0F06D152EA6E
:1009400003353FF4FDAE1046194622E750EA410652
:1009500018BF52EA43067FF4C5AE50EA41047FF463
:100960000DAF52EA43057FF4EBAE12E74FF0FF3CC8
:1009700006E000BF4FF0010C02E000BF4FF0010C99
:100980004DF804CD4FEA410C7FEA6C5C4FEA430C12
:1009900018BF7FEA6C5C1BD001B050EA410C0CBF61
:1009A00052EA430C91EA030F02BF90EA020F0020C3
:1009B000704710F1000F91EA030F58BF994208BF2A
:1009C00090422CBFD8176FEAE37040F001007047E7
:1009D0004FEA410C7FEA6C5C02D150EA013C07D13E
:1009E0004FEA430C7FEA6C5CD6D152EA033CD3D089
:1009F0005DF8040B704700BF8446104662468C4683
:100A00001946634600E000BF01B5FFF7B7FF0028B5
:100A100048BF10F1000F01BD4DF808EDFFF7F4FFDE
:100A20000CBF012000205DF808FB00BF4DF808ED69
:100A3000FFF7EAFF34BF012000205DF808FB00BF8C
:100A40004DF808EDFFF7E0FF94BF012000205DF8AE
:100A500008FB00BF4DF808EDFFF7CEFF94BF012063
:100A600000205DF808FB00BF4DF808EDFFF7C4FF5C
:100A700034BF012000205DF808FB00BF4FEA410CA5
:100A80007FEA6C5C02D150EA013C0AD14FEA430C88
:100A90007FEA6C5C02D152EA033C02D14FF00000C5
:100AA00070474FF0010070474FEA410212F5001203
:100AB00015D211D56FF47873B3EB625212D94FEAA5
:100AC000C12343F0004343EA505311F0004F23FA8F
:100AD00002F018BF404270474FF00000704750EAE4
:100AE000013005D111F0004008BF6FF000407047A1
:100AF0004FF00000704700BF4A0011D212F50012FB
:100B000011D20DD56FF47873B3EB62520ED44FEA65
:100B1000C12343F0004343EA505323FA02F07047E5
:100B20004FF00000704750EA013002D14FF0FF3023
:100B300070474FF0000070474FEA4102B2F1E043C6
:100B400024BFB3F5001CDCF1FE5C0DD901F0004CB4
:100B50004FEAC0024CEA5070B2F1004F40EB830004
:100B600008BF20F00100704711F0804F21D113F130
:100B70003872BCBF01F00040704741F480114FEA69
:100B80005252C2F11802C2F1200C10FA0CF320FAF2
:100B900002F018BF40F001004FEAC1234FEAD3230F
:100BA00003FA0CFC40EA0C0023FA02F34FEA430379
:100BB000CCE77FEA625307D150EA01331EBF4FF002
:100BC000FE4040F44000704701F0004040F0FE401D
:100BD00040F40000704700BF53B94AB9002908BF6C
:100BE00000281CBF4FF0FF314FF0FF3000F074B908
:100BF000ADF1080C6DE904CE00F006F8DDF804E074
:100C0000DDE9022304B070472DE9F047089D044652
:100C10008E46002B4DD18A42944669D9B2FA82F2AF
:100C200052B101FA02F3C2F1200120FA01F10CFAEB
:100C300002FC41EA030E94404FEA1C48210CBEFB23
:100C4000F8F61FFA8CF708FB16E341EA034306FBAC
:100C500007F199420AD91CEB030306F1FF3080F03B
:100C60001F81994240F21C81023E63445B1AA4B288
:100C7000B3FBF8F008FB103344EA034400FB07F72A
:100C8000A7420AD91CEB040400F1FF3380F00A816B
:100C9000A74240F207816444023840EA0640E41B60
:100CA00000261DB1D4400023C5E900433146BDE80C
:100CB000F0878B4209D9002D00F0EF800026C5E9AE
:100CC000000130463146BDE8F087B3FA83F6002EC6
:100CD0004AD18B4202D3824200F2F980841A61EB3E
:100CE000030301209E46002DE0D0C5E9004EDDE75C
:100CF00002B9FFDEB2FA82F2002A40F09280A1EB44
:100D00000C014FEA1C471FFA8CFE0126200CB1FB98
:100D1000F7F307FB131140EA01410EFB03F0884291
:100D200008D91CEB010103F1FF3802D2884200F21E
:100D3000CB804346091AA4B2B1FBF7F007FB1011B0
:100D400044EA01440EFB00FEA64508D91CEB04044E
:100D500000F1FF3102D2A64500F2BB800846A4EBA9
:100D60000E0440EA03409CE7C6F12007B34022FA94
:100D700007FC4CEA030C20FA07F401FA06F31C43C3
:100D8000F9404FEA1C4900FA06F3B1FBF9F8200CD0
:100D90001FFA8CFE09FB181140EA014108FB0EF016
:100DA000884202FA06F20BD91CEB010108F1FF3A66
:100DB00080F08880884240F28580A8F10208614472
:100DC000091AA4B2B1FBF9F009FB101144EA014180
:100DD00000FB0EFE8E4508D91CEB010100F1FF342B
:100DE0006CD28E456AD90238614440EA0840A0FBC3
:100DF0000294A1EB0E01A142C846A64656D353D099
:100E00005DB1B3EB080261EB0E0101FA07F722FABC
:100E100006F3F1401F43C5E9007100263146BDE8E5
:100E2000F087C2F12003D8400CFA02FC21FA03F348
:100E3000914001434FEA1C471FFA8CFEB3FBF7F0C9
:100E400007FB10360B0C43EA064300FB0EF69E42EE
:100E500004FA02F408D91CEB030300F1FF382FD287
:100E60009E422DD9023863449B1B89B2B3FBF7F62F
:100E700007FB163341EA034106FB0EF38B4208D908
:100E80001CEB010106F1FF3816D28B4214D9023E49
:100E90006144C91A46EA004638E72E46284605E767
:100EA0000646E3E61846F8E64B45A9D2B9EB020838
:100EB00064EB0C0E0138A3E74646EAE7204694E7C8
:100EC0004046D1E7D0467BE7023B614432E73046FB
:100ED00009E76444023842E7704700BF10F8012B6D
:100EE00011F8013B012A28BF9A42F7D0D01A704767
:100EF000034613F8012B002AFBD1181A013870475A
:100F000001F0FF01102A2BDB10F0070F08D010F8BA
:100F1000013B013A8B422DD010F0070F42B3F6D1BE
:100F2000F0B441EA012141EA014122F007047FF0D7
:100F300000070023F0E80256083C85EA010586EA2E
:100F4000010685FA47F5A3FA87F586FA47F6A5FA6A
:100F500087F68EB9EED1F0BC01F0FF0102F0070276
:100F600032B110F8013B013A83EA010313B1F8D121
:100F70000020704701387047002D06BF3546033802
:100F8000073815F0010F07D1013015F4807F02BF3B
:100F9000013015F4C03F0130F0BC0138704700BF8C
:100FA00080B582B000AF786039607B681B68DA6812
:100FB0007B681B6822F00102DA607B681B680022F4
:100FC0003968184628F06AFD7B681B682E4A9342F0
:100FD00004D07B681B682D4A934201D1012300E0B5
:100FE0000023002B17D07B681B681A6A41F211138B
:100FF0001340002B0FD17B681B681A6A40F24443F0
:101000001340002B07D17B681B685A6C7B681B68F8
:1010100022F400425A647B681B681A6A41F2111379
:101020001340002B0FD17B681B681A6A40F24443BF
:101030001340002B07D17B681B681A687B681B680C
:1010400022F001021A603B68002B04D17B68012268
:1010500083F83E2013E03B68042B04D17B68012217
:1010600083F83F200BE03B68082B04D17B6801220A
:1010700083F8402003E07B68012283F841200023AD
:1010800018460837BD4680BD0000014000040140FD
:1010900080B582B000AF78607B681B68044A9342D9
:1010A00001D102F08FFA00BF0837BD4680BD00BFF6
:1010B0000064004080B582B000AF0346FB80FB882F
:1010C000B3F5806F1BD0B3F5806F1BDC402B13D0C2
:1010D000402B17DC102B06D0102B13DC012B05D076
:1010E000022B06D00EE019F053FB0BE019F068FB61
:1010F00008E019F065FB05E019F06EFB02E018F05E
:101100002BF800BF00BF0837BD4680BD80B483B058
:1011100000AF786000BF0C37BD465DF8047B7047B8
:1011200080B500AF0022054905481BF036F9054996
:1011300003481BF050F90023184680BD802F002083
:10114000803700208027002080B400AF002318469D
:10115000BD465DF8047B704780B483B000AF0346A2
:101160003960FB711346BB80FB79232B4AD801A25F
:1011700052F823F0051202080512020805120208AF
:1011800005120208051202080512020805120208DB
:1011900005120208051202080512020805120208CB
:1011A00005120208051202080512020805120208BB
:1011B00005120208051202080512020805120208AB
:1011C000051202080512020805120208051202089B
:1011D000051202080512020805120208051202088B
:1011E000051202080512020805120208051202087B
:1011F000051202080512020805120208051202086B
:101200000512020800BF002318460C37BD465DF8E2
:10121000047B704780B584B000AF786039600F4BB5
:10122000D3F8BC32FB60FB68D3F80C32002B09D03A
:10123000FB68D3F80412FB68D3F80C321A4608484E
:1012400001F0C8FE796805481BF0C5F803481BF09B
:101250000BF9002318461037BD4680BD80370020AB
:101260007807002080B586B000AFF860B9601346FB
:10127000FB710023FB75124BD3F8BC323B613B6919
:10128000D3F808123B6903F504731A460D4801F0C0
:10129000FDFE0346002B0CD13B69D3F808123B69D5
:1012A000D3F810321A4606481BF077F804481BF0B2
:1012B000ABF897F9173018461837BD4680BD00BF08
:1012C000803700207C17002080B5A2B000AF1E4BF5
:1012D000D3F8BC32C7F88430D7F88430D3F814324E
:1012E000002B2BD1184B93F89C32DBB2032B06D08A
:1012F0003A463B1D1946154801F0C8FE21E0D7F8D3
:101300008430D3F80812D7F8843003F504731A46F2
:101310000E4801F0BBFE0346002B11D1D7F88430F4
:10132000D3F80812D7F88430D3F810321A4606489A
:101330001BF033F804481BF067F802E000BF00E040
:1013400000BF8837BD4680BD803700207C17002055
:1013500080B500AF0022124912481BF0AFF80346D7
:10136000002B01D019F05EFD0F490E481BF0D6F896
:101370000346002B01D019F055FD0C4909481AF01D
:10138000F7FF0346002B01D019F04CFD05481BF078
:10139000ECF80346002B01D019F044FD00BF80BDDE
:1013A000A0060020803700209805002000040020BF
:1013B00080B588B000AF786007F10C0300221A6096
:1013C0005A609A60DA601A614FF48073FB601223EE
:1013D0003B6100237B610023BB610423FB6107F1B8
:1013E0000C0319464C4821F00DFF4FF40073FB60CD
:1013F00012233B6100237B610023BB610423FB615B
:1014000007F10C031946454821F0FCFE0023BB60A0
:10141000434B1B6C424A43F400031364404B1B6C68
:1014200003F40003BB60BB68002205210D2020F0FF
:1014300040FF0D2020F059FF3A4B3B4A1A60394BD0
:101440004FF0C0625A60374B00229A60354B002241
:10145000DA60344B4FF480621A61324B00225A61D9
:10146000304B00229A612F4B0022DA612D4B002273
:101470001A622C4B00225A622A4820F057FF03467A
:10148000002B01D019F0CEFC7B68264A9A63254ACE
:101490007B689363002205210F2020F00AFF0F20B4
:1014A00020F023FF214B224A1A60204B4FF0C062EC
:1014B0005A601E4B40229A601C4B0022DA601B4B84
:1014C0004FF480621A61194B00225A61174B0022B7
:1014D0009A61164B0022DA61144B00221A62134BF8
:1014E00000225A62114820F021FF0346002B01D050
:1014F00019F098FC7B680D4A5A630C4A7B68936329
:1015000000220521482020F0D4FE482020F0EDFEE6
:1015100000BF2037BD4680BD0000024000080240E9
:10152000003802404861002040600240A86100206D
:101530007060024080B582B000AF7860104B1B6CC9
:101540000F4A23F4000313644FF480710D4821F017
:10155000F5FF4FF400710C4821F0F0FF7B689B6BA6
:10156000184620F091FF7B685B6B184620F08CFFDB
:10157000482020F0C8FE00BF0837BD4680BD00BF30
:1015800000380240000002400008024080B586B0EA
:1015900000AF3B1D00221A605A609A60DA601A613F
:1015A00001224FF48061204822F0C4F84FF4806398
:1015B0007B600123BB600023FB6000233B613B1D7C
:1015C0001946194821F01EFE184B194A1A60174B8C
:1015D000184A5A60154B00229A60144B0022DA60B8
:1015E000124B4FF480421A61104B00225A610F4B8C
:1015F00000229A610D4B0022DA610C4B00221A6224
:101600000A4B0D4ADA67094B0C4AC3F88020074899
:1016100022F0C2F80346002B01D019F003FC00238E
:1016200018461837BD4680BD00000240A45F002068
:10163000005C0040801A0600B1130208351502084C
:1016400080B584B002AF78607B689B68202B01D99D
:10165000012325E000224FF48061134822F06AF84C
:101660007B6819887B685B687A68926892B201929D
:10167000009302230A46A0210C4822F0BFFA00BFC3
:101680000A4822F08CFF0346202BF9D101224FF4A7
:101690008061054822F04EF805201FF02DF8002348
:1016A00018460837BD4680BD00000240A45F0020F8
:1016B00080B584B002AF78607B6819887B685B680E
:1016C0007A68926892B20192009302230A46A0219E
:1016D000074822F0F7FB00BF054822F060FF0346F1
:1016E000202BF9D1002318460837BD4680BD00BF26
:1016F000A45F002080B588B000AF786007F10C03CC
:1017000000221A605A609A60DA601A614023FB6016
:1017100012233B6100237B610023BB610423FB6137
:1017200007F10C0319464C4821F06CFD8023FB6047
:1017300012233B6100237B610023BB610423FB6117
:1017400007F10C031946444821F05CFD0023BB60FF
:10175000424B1B6C414A43F4001313643F4B1B6C18
:1017600003F40013BB60BB6800220521102020F0A9
:10177000A0FD102020F0B9FD394B3A4A1A60384BD1
:101780004FF000725A60364B00229A60344B0022B0
:10179000DA60334B4FF480621A61314B00225A6198
:1017A0002F4B00229A612E4B0022DA612C4B002233
:1017B0001A622B4B00225A62294820F0B7FD0346DB
:1017C000002B01D019F02EFB7B68254A9A63244A2E
:1017D0007B68936300220521112020F06AFD11200F
:1017E00020F083FD204B214A1A601F4B4FF00072FE
:1017F0005A601D4B40229A601B4B0022DA601A4B44
:101800004FF480621A61184B00225A61164B002275
:101810009A61154B0022DA61134B00221A62124BB7
:1018200000225A62104820F081FD0346002B01D0AF
:1018300019F0F8FA7B680C4A5A630B4A7B68936389
:10184000002205211F2020F034FD1F2020F04DFD37
:1018500000BF2037BD4680BD000402400038024072
:10186000286000208860024088600020A06002405C
:1018700080B582B000AF78600F4B1B6C0E4A23F42A
:101880000013136440210D4821F058FE80210B48BD
:1018900021F054FE7B689B6B184620F0F5FD7B68B9
:1018A0005B6B184620F0F0FD1F2020F02CFD00BFE0
:1018B0000837BD4680BD00BF00380240000402402A
:1018C00080B586B000AF3B1D00221A605A609A6056
:1018D000DA601A6101237B604FF48813BB60002338
:1018E000FB603B1D1946274821F08CFC02237B60DE
:1018F0004FF48813BB600023FB603B1D1946214851
:1019000021F080FC00220521062020F0D2FC0620D8
:1019100020F0EBFC00220521072020F0CAFC072064
:1019200020F0E3FC184B194A1A60174B184A5A600A
:10193000154B00229A60144B0022DA60124B4FF4D0
:1019400080421A61104B00225A610F4B00229A61AB
:101950000D4B0022DA610C4B00221A620A4B0D4A31
:10196000DA67094B0C4AC3F88020074821F014FFBE
:101970000346002B01D019F055FA002318461837FA
:10198000BD4680BD000402409C5E00200054004023
:10199000801A0600F51602087118020880B586B094
:1019A00002AF78600023FB737B681B78022B0CD09E
:1019B000022B0DDC002B02D0012B03D008E000230A
:1019C000FB7305E08023FB7302E02023FB7300BF61
:1019D0000123019307F10F03009301230122D42176
:1019E000124822F00BF900BF104822F0D8FD034640
:1019F000202BF9D17B685B7899B27B685B687A6849
:101A0000127A92B20192009301230A46D421074828
:101A100022F0F4F800BF054822F0C1FD0346202B58
:101A2000F9D1002318461037BD4680BD9C5E0020CA
:101A300080B586B002AF78600023FB737B681B78AB
:101A4000022B0CD0022B0DDC002B02D0012B03D07B
:101A500008E00023FB7305E08023FB7302E02023F2
:101A6000FB7300BF0123019307F10F0300930123D0
:101A70000122D421124822F0C1F800BF104822F000
:101A80008EFD0346202BF9D17B685B7899B27B6889
:101A90005B687A68127A92B20192009301230A4637
:101AA000D421074822F00EFA00BF054822F077FD46
:101AB0000346202BF9D1002318461037BD4680BDC0
:101AC0009C5E002080B586B000AF3B1D00221A60EE
:101AD0005A609A60DA601A6100224FF480611F48F0
:101AE00021F028FE00224FF480511C4821F022FEF4
:101AF00000224FF40051194821F01CFE4FF480637E
:101B00007B600123BB600023FB6000233B613B1D26
:101B10001946124821F076FB4FF480537B60012375
:101B2000BB600023FB6000233B613B1D19460B4853
:101B300021F068FB4FF400537B600123BB6000235E
:101B4000FB6000233B613B1D1946044821F05AFB12
:101B500000BF18461837BD4680BD00BF000C0240CC
:101B600080B584B000AF78600023FB817B681B7870
:101B7000FF2B03D1FB8943F40053FB817B685B7827
:101B8000FF2B03D1FB8943F48053FB817B689B7857
:101B9000FF2B03D1FB8943F48063FB8101224FF4C7
:101BA0005051074821F0C6FDFB8900221946044820
:101BB00021F0C0FD002318461037BD4680BD00BF90
:101BC000000C024080B588B000AF786007F10C03CC
:101BD00000221A605A609A60DA601A614FF48063DA
:101BE000FB6012233B6100237B610023BB61042364
:101BF000FB6107F10C031946314821F003FB4FF458
:101C00000063FB6012233B6100237B610023BB6107
:101C10000423FB6107F10C031946294821F0F2FA6D
:101C20000023BB60274B1B6C264A43F480031364DC
:101C3000244B1B6C03F48003BB60BB6800220521AE
:101C40000E2020F036FB0E2020F04FFB1E4B1F4ACB
:101C50001A601D4B4FF060625A601B4B00229A6065
:101C6000194B0022DA60184B4FF480621A61164B50
:101C700000225A61144B00229A61134B0022DA6150
:101C8000114B00221A62104B00225A620E4820F0BB
:101C90004DFB0346002B01D019F0C4F87B680A4ABB
:101CA0009A63094A7B68936300220521212020F072
:101CB00000FB212020F019FB00BF2037BD4680BD6E
:101CC0000004024000380240E860002058600240F2
:101CD00080B582B000AF78600D4B1B6C0C4A23F4CA
:101CE000800313644FF480610A4821F027FC4FF40D
:101CF0000061084821F022FC7B689B6B184620F0AD
:101D0000C3FB212020F0FFFA00BF0837BD4680BD8D
:101D1000003802400004024080B586B000AF3B1D91
:101D200000221A605A609A60DA601A6110237B60A0
:101D30004FF40413BB600123FB603B1D19461D4893
:101D400021F060FA002205210A2020F0B2FA0A20D0
:101D500020F0CBFA184B194A1A60174B184A5A60F0
:101D6000154B00229A60144B0022DA60124B4FF49C
:101D700080421A61104B00225A610F4B00229A6177
:101D80000D4B0022DA610C4B00221A620A4B0D4AFD
:101D9000DA67094B0C4AC3F88020074821F0FCFCA5
:101DA0000346002B01D019F03DF8002318461837E0
:101DB000BD4680BD00080240205F00200058004062
:101DC000A0860100C51B0208D11C020880B584B0A2
:101DD00002AF78607B681B7A022B01D9012317E0E0
:101DE0007B681B7899B27B685B687A68127A92B2DA
:101DF0000192009301230A463021074821F04CFE4E
:101E000000BF054822F0CBFB0346202BF9D100236D
:101E100018460837BD4680BD205F002080B584B0DD
:101E200002AF78607B681B7A022B01D9012317E08F
:101E30007B681B7899B27B685B687A68127A92B289
:101E40000192009301230A463021074822F03AF814
:101E500000BF054822F0A3FB0346202BF9D1002345
:101E600018460837BD4680BD205F002080B588B089
:101E700000AF786007F10C0300221A605A609A6084
:101E8000DA601A610023BB60584B1B6C574A43F45D
:101E900000431364554B1B6C03F40043BB60BB68E9
:101EA0000823FB6002233B6100237B610023BB61AD
:101EB0000623FB6107F10C0319464D4821F0A2F9F6
:101EC0001023FB6002233B6100237B610023BB6185
:101ED0000623FB6107F10C031946454821F092F9EE
:101EE0002023FB6002233B6100237B610023BB6155
:101EF0000623FB6107F10C0319463D4821F082F9E6
:101F0000002205210B2020F0D4F90B2020F0EDF960
:101F1000384B394A1A60374B00225A60354B002241
:101F20009A60344B0022DA60324B4FF480621A61BF
:101F3000304B00225A612F4B00229A612D4B002218
:101F4000DA612C4B00221A622A4B00225A6229487D
:101F500020F0ECF90346002B01D018F063FF7B68FA
:101F6000244ADA64234A7B689363002205212F20E8
:101F700020F09FF92F2020F0B8F9204B204A1A605A
:101F80001E4B00225A601D4B40229A601B4B0022C0
:101F9000DA601A4B4FF480621A61184B00225A61C2
:101FA000164B00229A61154B0022DA61134B002276
:101FB0001A62124B00225A62104820F0B7F9034609
:101FC000002B01D018F02EFF7B680C4A9A640B4A54
:101FD0007B68936300220521332020F06AF93320C7
:101FE00020F083F900BF2037BD4680BD0038024095
:101FF000000402404864002010600240A8640020F1
:10200000B860024080B582B000AF7860114B1B6CA5
:10201000104A23F40043136408210F4821F08EFA7C
:1020200010210D4821F08AFA20210B4821F086FA70
:102030007B68DB6C184620F027FA7B689B6C18469F
:1020400020F022FA332020F05EF900BF0837BD46A9
:1020500080BD00BF003802400004024080B586B059
:1020600000AF3B1D00221A605A609A60DA601A6164
:1020700001224FF40041254821F05CFB4FF400435E
:102080007B600123BB600023FB6000233B613B1DA1
:1020900019461E4821F0B6F81D4B1E4A1A601C4B0B
:1020A0004FF482725A601A4B00229A60184B002239
:1020B000DA60174B00221A61154B01225A61144B4A
:1020C0004FF400729A61124B1022DA61104B002219
:1020D0001A620F4B00225A620D4B00229A620C4B7F
:1020E0000A22DA620A4B0C4A9A67094B0B4ADA67F2
:1020F000074825F015FF0346002B01D018F092FE8B
:10210000002318461837BD4680BD00BF00000240BE
:1021100008630020003C00406D1E020805200208F4
:1021200080B58CB000AF786000233B620023FB7762
:102130007B681B78BB777B681B7A7B777B685B7AD5
:102140003B77BB7F302B00F2BD8001A252F823F019
:10215000152202081D220208252202082D2202084B
:10216000352202083D220208452202084D220208BB
:10217000552202085D220208652202086D2202082B
:10218000752202087D220208852202088D2202089B
:10219000952202089D220208C5220208C5220208D3
:1021A000A5220208AD220208C5220208C5220208A3
:1021B000C5220208C5220208C5220208C52202085B
:1021C000C5220208C5220208C5220208C52202084B
:1021D000B5220208C5220208C5220208C52202084B
:1021E000C5220208C5220208C5220208C52202082B
:1021F000C5220208C5220208C5220208C52202081B
:10220000C5220208C5220208C5220208C52202080A
:10221000BD220208002387F82F3053E0002387F8FF
:102220002F304FE0002387F82F304BE0002387F852
:102230002F3047E0002387F82F3043E00A2387F848
:102240002F303FE00A2387F82F303BE00A2387F83E
:102250002F3037E00A2387F82F3033E00A2387F83E
:102260002F302FE00A2387F82F302BE00A2387F83E
:102270002F3027E00A2387F82F3023E00A2387F83E
:102280002F301FE00A2387F82F301BE00A2387F83E
:102290002F3017E00A2387F82F3013E00A2387F83E
:1022A0002F300FE0002387F82F300BE0002387F852
:1022B0002F3007E0002387F82F3003E0002387F852
:1022C0002F3000BFFB7FDB031AB297F82F30DB0201
:1022D0001BB213431AB27B7F9B021BB213431AB289
:1022E000BB7F1B011BB213431AB23B7F1BB21343CC
:1022F0001BB27B8300237B627B8B1B0A99B27B6AB8
:102300005A1C7A62C9B2774AD1547B6A5A1C7A62E3
:102310007A8BD1B2734AD1540023BB621CE07B6834
:102320005A68BB6A5B0013441B881B0A99B27B6A1C
:102330005A1C7A62C9B26B4AD1547B685A68BB6A2C
:102340005B00134419887B6A5A1C7A62C9B2654AD9
:10235000D154BB6A0133BB623B7FBA6A9A42DEDB6F
:1023600000224FF40041604821F0E4F9002000F021
:1023700047FB7B6A9BB25D4A5A495D4825F0BEFE29
:102380001EF0AEF9386210E01EF0AAF902463B6A70
:10239000D31A322B09D9564825F07EFE0346002B6E
:1023A00001D018F03FFD022398E0514826F0F8F8DC
:1023B0000346012BE8D1052000F0B7FE02237B6124
:1023C000012000F01DFB7B699BB2484A4549484803
:1023D00025F094FE1EF084F9386210E01EF080F9BA
:1023E00002463B6AD31A322B09D9414825F054FEE4
:1023F0000346002B01D018F015FD02236EE03C4887
:1024000026F0CEF80346012BE8D101224FF400411B
:10241000354821F08FF9002000F0F2FA334B1B7899
:102420001B021AB2314B5B781BB213431BB27B8287
:102430007B8A1B0B9BB2DBB203F00F037B747B8A9E
:102440001B0A9BB2DBB203F00F033B747B8AFB7366
:102450000023BB620BE0234ABB6A13441978254A68
:10246000BB6A13440A461A70BB6A0133BB62BA6A7C
:102470007B6A9A42EFDB0023BB620BE0BA6A7B6A9D
:1024800013441A49BA6A0A4411781A4AD154BB6AE9
:102490000133BB627B69023BBA6A9A42EEDB7B6A1C
:1024A000DAB27B69DBB21344DBB2013BDBB2194623
:1024B000104800F06BFA0346BB733B7C0E2B01D037
:1024C00004230BE0FA7BBB7B9A4201D0052305E095
:1024D0007B7C0F2B01D0032300E00023184630370C
:1024E000BD4680BD503A002000000240603A002006
:1024F00008630020703A002080B58CB000AF78608F
:1025000000237B62012387F823307B681B7887F8E0
:1025100022307B681B7A87F821307B685B7A87F8EA
:10252000203097F82230302B00F2008101A252F8BF
:1025300023F000BFF9250208072602081526020825
:1025400023260208312602083F2602084D260208EB
:102550005B260208692602087726020885260208FB
:1025600093260208A1260208AF260208BD2602080B
:10257000CB260208D9260208E72602082D270208E2
:102580002D270208F5260208032702082D27020836
:102590002D2702082D2702082D2702082D270208C3
:1025A0002D2702082D2702082D2702082D270208B3
:1025B0002D270208112702082D2702082D270208BF
:1025C0002D2702082D2702082D2702082D27020893
:1025D0002D2702082D2702082D2702082D27020883
:1025E0002D2702082D2702082D2702082D27020873
:1025F0002D2702081F270208002387F82F30012308
:1026000087F82E3092E0002387F82F30002387F8D8
:102610002E308BE0002387F82F30012387F82E30EF
:1026200084E0002387F82F30012387F82E307DE0E7
:10263000002387F82F30012387F82E3076E00A2315
:1026400087F82F30002387F82E306FE00A2387F8B1
:102650002F30002387F82E3068E00A2387F82F30C8
:10266000002387F82E3061E00A2387F82F300023FB
:1026700087F82E305AE00A2387F82F30002387F896
:102680002E3053E00A2387F82F30002387F82E30AE
:102690004CE00A2387F82F30002387F82E3045E0DE
:1026A0000A2387F82F30002387F82E303EE00A23D4
:1026B00087F82F30002387F82E3037E00A2387F879
:1026C0002F30002387F82E3030E00A2387F82F3090
:1026D000002387F82E3029E00A2387F82F300023C3
:1026E00087F82E3022E00A2387F82F30002387F85E
:1026F0002E301BE0002387F82F30002387F82E3080
:1027000014E0002387F82F30002387F82E300DE0E7
:10271000002387F82F30002387F82E3006E00023AF
:1027200087F82F30002387F82E3000BF97F823302A
:10273000DB031AB297F82F30DB021BB213431AB235
:1027400097F821309B021BB213431AB297F822303C
:102750001B011BB213431AB297F820301BB213436C
:102760001BB2FB830023BB61FB8B1B0A99B2BB69C5
:102770005A1CBA61C9B2804AD154BB695A1CBA61A9
:10278000FA8BD1B27C4AD15400224FF400417B48ED
:1027900020F0D0FF002000F033F9BB699BB2784AEB
:1027A0007549784825F0AAFC1DF09AFF786210E080
:1027B0001DF096FF02467B6AD31A322B09D9714865
:1027C00025F06AFC0346002B01D018F02BFB0223F6
:1027D000CEE06C4825F0E4FE0346012BE8D105204D
:1027E00000F0A3FC97F8203001335B007B610120EF
:1027F00000F006F97B699BB2614A5F49614825F0A8
:102800007DFC1DF06DFF786210E01DF069FF02464F
:102810007B6AD31A322B09D95A4825F03DFC03466E
:10282000002B01D018F0FEFA0223A1E0554825F054
:10283000B7FE0346012BE8D101224FF400414F4877
:1028400020F078FF002000F0DBF87B69023B4C4A67
:10285000D35C1B021AB27B69013B4949CB5C1BB2BA
:1028600013431BB27B827B8A1B0B9BB2DBB203F050
:102870000F037B747B8A1B0A9BB2DBB203F00F034E
:102880003B747B8AFB730023BB620BE03A4ABB6A52
:10289000134419783C4ABB6A13440A461A70BB6A4F
:1028A0000133BB62BA6ABB699A42EFDB0023BB62A9
:1028B0000BE0BA6ABB6913443149BA6A0A44117819
:1028C000314AD154BB6A0133BB627B69023BBA6AAD
:1028D0009A42EEDBBB69DAB27B69DBB21344DBB24E
:1028E000023BDBB21946284800F050F80346BB73A0
:1028F00097F82E30002B06D0214B1B785BB2002BB3
:1029000001DB062334E03B7C0E2B01D004232FE0B7
:10291000FA7BBB7B9A4201D0052329E07B7C0F2BFD
:1029200001D0032324E00023BB6217E0BB6A5B00F5
:10293000134AD35C1B021AB2BB6A5B000133104915
:10294000CB5C1BB2134319B27B685A68BB6A5B004D
:1029500013448AB21A80BB6A0133BB627B69023BB3
:10296000DA0F13445B101A46BB6A9342DEDB002386
:1029700018463037BD4680BD503A00200000024066
:10298000603A002008630020703A002080B487B0CD
:1029900000AF78600B46FB707B683B61FF23FB75E3
:1029A00021E03B695A1C3A611A78FB7D5340FB7564
:1029B0000023FB7311E097F91730002B07DAFB7D3A
:1029C0005B00FB75FB7D83F01D03FB7502E0FB7D67
:1029D0005B00FB75FB7B0133FB73FB7B072BEAD9A9
:1029E000FB78013BFB70FB78002BDAD1FB7DDB43EE
:1029F000DBB218461C37BD465DF8047B704700000B
:102A000080B588B000AF0346FB7107F10C030022CC
:102A10001A605A609A60DA601A61FB79002B1CD147
:102A20001023FB6000233B6100237B6107F10C0353
:102A300019461A4820F0E6FB2023FB6002233B6185
:102A400000237B610023BB610623FB6107F10C03BC
:102A50001946124820F0D6FB1BE02023FB60002320
:102A60003B6100237B6107F10C0319460B4820F002
:102A7000C9FB1023FB6002233B6100237B61002321
:102A8000BB610623FB6107F10C031946034820F0E4
:102A9000B9FB002318462037BD4680BD0004024024
:102AA00080B588B000AF786007F10C0300221A608F
:102AB0005A609A60DA601A610023BB60594B5B6C04
:102AC000584A43F480535364564B5B6C03F4805371
:102AD000BB60BB682023FB6002233B6100237B615A
:102AE0000023BB610523FB6107F10C0319464E4827
:102AF00020F088FB4023FB6002233B6100237B61C5
:102B00000023BB610523FB6107F10C03194646480E
:102B100020F078FB8023FB6002233B6100237B6174
:102B20000023BB610523FB6107F10C0319463E48F6
:102B300020F068FB0022052138201FF0BAFB382066
:102B40001FF0D3FB394B3A4A1A60384B4FF0C06242
:102B50005A60364B00229A60344B0022DA60334BC5
:102B60004FF480621A61314B00225A612F4B0022D0
:102B70009A612E4B0022DA612C4B00221A622B4BF9
:102B800000225A6229481FF0D1FB0346002B01D0D6
:102B900018F048F97B68254ADA64244A7B68936315
:102BA000002205213B201FF084FB3B201FF09DFBF2
:102BB000204B214A1A601F4B4FF0C0625A601D4BD8
:102BC00040229A601B4B0022DA601A4B4FF480625D
:102BD0001A61184B00225A61164B00229A61154B5C
:102BE0000022DA61134B00221A62124B00225A6251
:102BF00010481FF09BFB0346002B01D018F012F980
:102C00007B680C4A9A640B4A7B6893630022052117
:102C100023201FF04EFB23201FF067FB00BF20374F
:102C2000BD4680BD0038024000000240886300209D
:102C300010640240E86300205864024080B582B00E
:102C400000AF7860114B5B6C104A23F480535364DF
:102C500020210F4820F072FC40210D4820F06EFC2E
:102C600080210B4820F06AFC7B68DB6C18461FF063
:102C70000BFC7B689B6C18461FF006FC23201FF0A2
:102C800042FB00BF0837BD4680BD00BF0038024090
:102C90000000024080B586B000AF3B1D00221A60E4
:102CA0005A609A60DA601A6101224FF480415648F6
:102CB00020F040FD01224FF40041534820F03AFD3E
:102CC00001224FF40061514820F034FD00224FF4FE
:102CD00080714E4820F02EFD012210214C4820F03A
:102CE00029FD4FF480437B600123BB600023FB6020
:102CF00000233B613B1D1946434820F083FA4FF403
:102D000000437B600123BB600023FB6000233B6129
:102D10003B1D19463C4820F075FA4FF400637B6078
:102D20000123BB600023FB6000233B613B1D194670
:102D3000364820F067FA4FF480737B600123BB6054
:102D40000023FB6000233B613B1D19462F4820F008
:102D500059FA10237B600123BB600023FB60002332
:102D60003B613B1D19462A4820F04CFA4FF4806322
:102D70007B604FF48813BB600023FB603B1D19464A
:102D8000224820F03FFA0022052128201FF091FA66
:102D900028201FF0AAFA1F4B1F4A1A601D4B4FF440
:102DA00082725A601B4B00229A601A4B0022DA6032
:102DB000184B02221A61174B01225A61154B4FF42E
:102DC00000729A61134B2022DA61124B00221A62C0
:102DD000104B00225A620F4B00229A620D4B0A22BE
:102DE000DA620C4B0D4A9A670A4B0D4ADA670948BA
:102DF00025F096F80346002B01D018F013F80023B5
:102E000018461837BD4680BD000402400008024045
:102E1000000002400862002000300140A12A0208A0
:102E20003D2C020880B584B000AF78607B68002B31
:102E300001D1012341E005220021224828F0FEFCB7
:102E400005220021204828F0F9FC7B681B7863F0FC
:102E50007F03DAB21B4B1A700023FB600BE07B6828
:102E60005A68FB681A44FB6801331178154AD1543B
:102E7000FB680133FB60FB68032BF0DD00221021AF
:102E8000124820F057FC05230F4A0E49104825F040
:102E900035F90346FB72FB7A002B01D002230CE0CC
:102EA00000BF0B4825F07CFB0346012BF9D1012222
:102EB0001021064820F03EFC002318461037BD467E
:102EC00080BD00BF903A0020983A002000000240E8
:102ED0000862002080B584B000AF78607B68002B6A
:102EE00001D101236AE005220021364828F0A6FC22
:102EF00005220021344828F0A1FC7B681A78314B68
:102F00001A700023FB6007E0FB6801332D4A0021A3
:102F1000D154FB680133FB60FB68032BF4DD002216
:102F200010212A4820F006FC0523274A2549284875
:102F300025F0E4F80346FB72FB7A002B01D0022354
:102F40003CE000BF224825F02BFB0346012BF9D1C2
:102F5000012210211D4820F0EDFB002210211B480A
:102F600020F0E8FB0523184A1649194825F0C6F851
:102F70000346FB72FB7A002B01D002231EE000BF48
:102F8000134825F00DFB0346012BF9D10122102136
:102F90000E4820F0CFFB0023FB600BE0FB685A1CBF
:102FA0007B685968FB680B4407498A5C1A70FB68A8
:102FB0000133FB60FB68032BF0DD0023184610375C
:102FC000BD4680BD903A0020983A002000000240A3
:102FD0000862002090B486B000AFF860B9607A60F3
:102FE000FB6803F580535B7801335A4203F01F03FB
:102FF00002F01F0258BF5342FA6802F5805212785D
:10300000934201D101233CE07B68802B01D901234D
:1030100037E0FB6803F580535B787A68D1B2FA68D1
:10302000DB0113440A461A7000237B6113E07B69BD
:10303000BA681A44FB6803F580535B781C467B69C9
:1030400001331078F968E2010A44134402461A7009
:103050007B6901337B617B697A689A42E7D8FB68B8
:1030600003F580535B7801335A4203F01F0302F0EB
:103070001F0258BF5342DAB2FB6803F580535A70FF
:10308000002318461837BD4690BC704790B486B0F0
:1030900000AFF860B9607A60FB6803F580531A7876
:1030A000FB6803F580535B789A4201D1012337E036
:1030B000FB6803F580531B78FA68DB0113441B7827
:1030C0001A467B681A6000237B6112E0FB6803F5F7
:1030D00080531B781C467B695A1C7B69B9680B447A
:1030E000F868E10101440A4412781A707B690133DF
:1030F0007B617B681A687B699A42E7D8FB6803F5B5
:1031000080531B7801335A4203F01F0302F01F0261
:1031100058BF5342DAB2FB6803F580531A7000239C
:1031200018461837BD4690BC704780B485B000AFD4
:1031300078600023FB6002E0FB680133FB607A6883
:1031400013465B0013449B001344FA689A42F3DB76
:1031500000BF00BF1437BD465DF8047B7047000018
:1031600080B483B000AF4FF000533B6000237B601E
:1031700072B600BF00237B600FE07B689B0003F109
:10318000006303F5003319467B689B003A681344DB
:103190000A681A607B6801337B607B68612BECD91D
:1031A000094B1B68084A23F003031360064B1B6896
:1031B000054A43F00303136062B600BF00BF0C373B
:1031C000BD465DF8047B70470038014080B586B08D
:1031D00000AF3B1D00221A605A609A60DA601A61E3
:1031E00040237B604FF40413BB600123FB603B1D55
:1031F0001946074820F006F80022052117201FF085
:1032000058F817201FF071F800BF1837BD4680BD71
:103210000008024080B500AFFFF7D8FF0023184632
:1032200080BD000080B58AB000AF786007F114035C
:1032300000221A605A609A60DA601A6100233B61CA
:10324000274B1B6C264A43F000731364244B1B6C02
:1032500003F000733B613B6901237B610223BB6187
:103260000023FB6100233B6209237B6207F1140307
:1032700019461C481FF0C6FF02237B610223BB6175
:103280000023FB6100233B6209237B6207F11403E7
:10329000194614481FF0B6FF0022052113201FF025
:1032A00008F813201FF021F80022052114201FF038
:1032B00000F814201FF019F80022052115201EF037
:1032C000F8FF15201FF011F80022052116201EF02E
:1032D000F0FF16201FF009F800BF2837BD4680BD5B
:1032E00000380240000C024080B582B000AF786028
:1032F0000E4B1B6C0D4A23F00073136401210C4824
:1033000020F01CF902210A4820F018F913201EF0C1
:10331000FAFF14201EF0F7FF15201EF0F4FF162010
:103320001EF0F1FF00BF0837BD4680BD00380240E7
:10333000000C024080B586B000AF3B1D00221A6031
:103340005A609A60DA601A6100220121354820F043
:10335000F1F900220221334820F0ECF90022042187
:10336000304820F0E7F901237B600123BB60002394
:10337000FB6000233B613B1D19462A481FF042FFBA
:1033800002237B600123BB600023FB6000233B61C1
:103390003B1D194623481FF035FF04237B600123A2
:1033A000BB600023FB6000233B613B1D19461D48A9
:1033B0001FF028FF1C4B1D4A1A601B4B06225A6047
:1033C000194B00229A60184B0022DA60164B4FF41A
:1033D00010221A61144B4FF400125A61124B002252
:1033E0001A76114B00225A760F4B00229A760E4B1A
:1033F0000122DA760C4B00221A770B4B00225A7707
:10340000094B0B4ADA65084B0A4A1A6606481DF052
:1034100029FF0346002B01D017F004FD00BF183729
:10342000BD4680BD00080240D45D0020006400401D
:1034300025320208E932020880B582B000AF0346A7
:103440000A46FB711346BB71FFF774FFFB79194AFB
:103450001360BB79184A136018481EF029F9184BFD
:1034600000221A60164B00225A60154B00229A6007
:10347000134B0022DA60124B0122DA61104B00225A
:103480001A610F4B00225A610D4B00229A610C4BBE
:103490000E225A620A4B01221A62094907481EF09D
:1034A00027F8022105481EF0AEFB00231846083716
:1034B000BD4680BDA44A0020A84A0020D45D00205B
:1034C000AC4A002080B500AF01220621024820F05E
:1034D00031F90023184680BD0008024080B500AFD6
:1034E00000220621024820F025F90023184680BD5D
:1034F0000008024080B584B000AF78600023BB6054
:103500007B685B68082B01D901234CE028481EF03A
:1035100033FAB8600FE01DF0E3F80246254B1B6854
:10352000D31A632B03D9072121481EF0E0F9204864
:103530001EF022FAB860BB68002BECD07B681B68D9
:103540001D4A53601C4B0022DA601B4B04229A6018
:103550007B685B68184A1361174B00221A750023B9
:10356000FB600CE07A68FB68134408331978134A4F
:10357000FB6813440A461A70FB680133FB607B68E2
:103580005A68FB689A42EDD80D4B0C4A0A49084824
:103590001EF0D2F8BB68032B04D11DF0A1F803463E
:1035A000044A1360002318461037BD4680BD00BF93
:1035B000D45D00201C4B0020F84A0020104B002056
:1035C000184B002080B586B000AF324B324A002144
:1035D00032481EF006FA0346002B56D12E4B9B684C
:1035E000002B02D12C4B1B6801E02B4B5B683B612D
:1035F0003B69DAB22A4B1B689A4205D03B69DAB2C2
:10360000284B1B689A4240D13B69DB0CDBB203F0CC
:103610000103DBB23B703B699B0CDBB203F001039F
:10362000DBB27B703B695B0CDBB203F00103DBB206
:10363000BB703B691B0CDBB203F00103DBB2FB7018
:103640003B691B0ADBB23B713B69DBB27B71002338
:103650007B610CE07B6906330E497A690A44127873
:1036600018333B4403F8182C7B6901337B617B6979
:10367000072BEFD93B460E2219460B48FFF7AAFC51
:103680000346002B01D0022300E000231846183720
:10369000BD4680BDF04A0020D44A0020D45D002001
:1036A000A44A0020A84A0020A03A002080B485B097
:1036B00000AFF860B9607A607B680E2B01D00123FF
:1036C00041E0BB681B78DA04BB6801331B789B04BC
:1036D0001A43BB6802331B785B041A43BB6803338D
:1036E0001B781B041A43BB6804331B781B0213436B
:1036F000BA680532127813431A46FB681A60FB68F1
:1037000008225A60BB689A79FB681A72BB68DA793A
:10371000FB685A72BB681A7AFB689A72BB685A7A5D
:10372000FB68DA72BB689A7AFB681A73BB68DA7A4C
:10373000FB685A73BB681A7BFB689A73BB685A7B39
:10374000FB68DA73002318461437BD465DF8047B26
:103750007047000080B582B000AF0346FB71FEF7F2
:103760007DFC0F4AFB7913700E4B01221A700D4B32
:1037700000221A720B4B01225A720A4B0A4A5A60F3
:10378000094B41F6EF021A800648FEF7C9FC0120FA
:103790001CF0B2FF002318460837BD4680BD00BFAD
:1037A000584B0020204B00202C4B002080B586B0C9
:1037B00000AF786039600023BB750023FB754FF0C4
:1037C00000033B616B4B02221A706A4B00221A7293
:1037D000684B01225A72674B674A5A606548FEF788
:1037E0008BFE0346BB75BB7D062B00F2BC8001A29D
:1037F00052F823F0113802086739020857390208D5
:1038000099380208673902086739020851390208F5
:10381000594B1B885B001BB25B10FB81B7F90E3064
:1038200007EE903AF8EEE77A17EE900AFCF734FECE
:103830004FF00002514BFCF787FE02460B46104644
:1038400019464FF000024E4BFCF7A8FF02460B460C
:1038500010461946FDF770F902467B681A60494B1D
:103860001B78002B15D07B68D3ED007AB0EE670A89
:1038700000F0B2FB87ED040A7B6893ED007AD7ED88
:10388000047A77EE277A7B68C3ED007A3B683A6961
:103890001A600023FB7568E0374B1B885B001BB286
:1038A0005B10FB81B7F90E3007EE903AF8EEE77A3D
:1038B00017EE900AFCF7F0FD4FF000022F4BFCF7DB
:1038C00043FE02460B46104619464FF000022C4BB1
:1038D000FCF764FF02460B4610461946FDF72CF92B
:1038E00002467B681A60274B1B78002B15D07B683B
:1038F000D3ED007AB0EE670A00F06EFB87ED040AA4
:103900007B6893ED007AD7ED047A77EE277A7B68AF
:10391000C3ED007A3B683A691A60164B00221A70B0
:10392000144B00221A72134B01225A72114B124A85
:103930005A601048FEF7E0FD0F4B1B8803F48053DC
:10394000002B02D00423FB750FE00523FB750CE070
:103950000623FB7509E00B4B1B781846FFF7FAFEB0
:103960000323FB7501E0032300E0FB7D18461837B5
:10397000BD4680BD204B00202C4B002000807640AF
:103980000000E040584B00202DE9B04388B000AF64
:10399000F860B9607A603B604FF00003FB614FF064
:1039A00000037B610023FB740023FB76984BB3F983
:1039B0000020984B1A80984B02221A70964B0022D6
:1039C0001A72954B01225A72934B944A5A6092484C
:1039D000FEF792FD0346FB74FB7C062B00F2108180
:1039E00001A252F823F000BF053A0208013C020888
:1039F000F13B0208B53B0208013C0208013C020809
:103A0000EB3B0208854B1B885B001BB25B101AB2B4
:103A10007F4B1A807E4BB3F9003007EE903AF8EEF8
:103A2000E77A17EE900AFCF737FD4FF000027C4B67
:103A3000FCF78AFD02460B46104619464FF000027D
:103A4000784BFCF7ABFE02460B4610461946FDF7D5
:103A500073F80346FB61744B1B78002B11D097ED74
:103A6000070A00F0B9FA87ED050A97ED077AD7ED56
:103A7000057A77EE277AC7ED077ABB6B7A691A6009
:103A800003E0BB6B4FF000021A60D7ED077AF0EE4F
:103A9000E77AB0EE007AF4EEC77AF1EE10FA1ED5AE
:103AA0005C4BB3F90030002B0ADB594BB3F9003003
:103AB000002B05DA5D4B1B68013B5C4A13600EE08E
:103AC000544BB3F90030002B09DA514BB3F90030F5
:103AD000002B04DB554B1B680133544A1360D7EDB0
:103AE000077AF0EEE77A9FED527AF4EEC77AF1EEBC
:103AF00010FA1EDD474BB3F90030002B0ADB444BB4
:103B0000B3F90030002B05DA4A4B1B680133494AF0
:103B100013600EE03F4BB3F90030002B09DA3C4B49
:103B2000B3F90030002B04DB424B1B68013B414AD8
:103B30001360FB68FA691A60F869FCF7ADFC04468B
:103B40000D463A4B1B681846FCF794FC4FF00002F8
:103B5000334BFCF7F9FC02460B4690469946354B31
:103B60001A68324B1B68D31A1846FCF783FC4FF0D7
:103B700000022B4BFCF7E8FC02460B464046494648
:103B8000FCF72CFB02460B4620462946FCF726FB99
:103B900002460B4610461946FCF7CEFF0246BB68AC
:103BA0001A60244B1A687B681A60204B1A683B68BD
:103BB0001A6027E0184B00221A70174B00221A7265
:103BC000154B01225A72144B144A5A601248FEF7E0
:103BD00093FC124B1B8803F48053002B02D0042368
:103BE000FB760FE00523FB760CE00623FB7609E06D
:103BF0000D4B1B781846FFF7ADFD0323FB7601E064
:103C0000032300E0FB7E18462037BD46BDE8B083A5
:103C1000564B0020544B0020204B00202C4B002002
:103C2000008076400000E040584B00204C4B0020C4
:103C300000003243504B002080B582B000AF786066
:103C40003960114B02221A700F4B00221A720E4B70
:103C500001225A720C4B0D4A5A600B48FEF74CFC7D
:103C60000A4B1B885B001BB25B101AB2084B1A8010
:103C7000084A7B681360084A3B68136000231846B3
:103C80000837BD4680BD00BF204B00202C4B0020D4
:103C9000564B0020504B00204C4B002080B58CB080
:103CA00000AF03460A46FB711346BB71684B0822FE
:103CB0001A70674B00221A72654B01225A72644ACD
:103CC00007F11A0353606248FEF716FC604B0922A5
:103CD0001A705F4B00221A725D4B01225A725C4AC5
:103CE00007F1180353605A48FEF706FC584B0A22A6
:103CF0001A70574B00221A72554B01225A72544ABD
:103D000007F1160353605248FEF7F6FB504B0B22A7
:103D10001A704F4B00221A724D4B01225A724C4AB4
:103D200007F1140353604A48FEF7E6FB484B0C22A8
:103D30001A70474B00221A72454B01225A72444AAC
:103D400007F1120353604248FEF7D6FB404B0D22A9
:103D50001A703F4B00221A723D4B01225A723C4AA4
:103D600007F1100353603A48FEF7C6FB384B0E22AA
:103D70001A70374B00221A72354B01225A72344A9C
:103D800007F10E0353603248FEF7B6FB304B0F22AB
:103D90001A702F4B00221A722D4B01225A722C4A94
:103DA00007F10C0353602A48FEF7A6FBFB79032BAF
:103DB00031D801A252F823F0C93D0208DF3D0208C4
:103DC000EB3D0208013E02087B8B1BB223F0070388
:103DD0001BB243F001031BB29BB27B8326E07B8BBB
:103DE00023F007039BB27B8320E07B8B1BB223F085
:103DF00007031BB243F004031BB29BB27B8315E0A5
:103E00007B8B1BB223F007031BB243F005031BB2ED
:103E10009BB27B830AE07B8B1BB223F007031BB2B0
:103E200043F001031BB29BB27B8300BFBB79002B25
:103E300002D0012B06D00DE07B8B23F008039BB250
:103E40007B830DE07B8B43F008039BB27B8307E011
:103E5000204B00207B8B23F008039BB27B8300BFA9
:103E60007B8B1B0A9BB2DBB23B777B8BDBB27B7716
:103E70003B8B1B0A9BB2DBB2BB773B8BDBB2FB7786
:103E8000FB8A1B0A9BB2DBB287F82030FB8ADBB2CD
:103E900087F82130BB8A1B0A9BB2DBB287F822303D
:103EA000BB8ADBB287F823307B8A1B0A9BB2DBB26A
:103EB00087F824307B8ADBB287F825303B8A1B0ADF
:103EC0009BB2DBB287F826303B8ADBB287F827301B
:103ED000FB891B0A9BB2DBB287F82830FB89DBB277
:103EE00087F82930BB891B0A9BB2DBB287F82A30DE
:103EF00007F11C030F211846FEF748FD034687F81B
:103F00002F302A4B0F221A70284B00221A72274B8F
:103F100001225A72254B264A5A60BB891BB223F0F4
:103F2000FF031AB297F82F301BB213431BB29AB299
:103F30001F4B1A801D48FEF7F3F81C4B08221A701D
:103F40001A4B00221A72194B01225A72174B184A47
:103F50005A607A8B164B1A801448FEF7E1F801205C
:103F60001CF0CAFB114B00221A70104B00221A726F
:103F70000E4B01225A720D4B0D4A5A600B48FEF748
:103F8000BBFA0A4B00221A70084B00221A72074B28
:103F900001225A72054B064A5A600448FEF7ACFAF1
:103FA000002318463037BD4680BD00BF204B00209F
:103FB0002C4B002080B483B000AF0346FB71054A50
:103FC000FB791370002318460C37BD465DF8047B5F
:103FD000704700BF584B002080B48BB000AF87ED16
:103FE000010A4FF00003FB6140F26713BB61D7ED9C
:103FF000017AF5EEC07AF1EE10FA02DB7B687B62A3
:1040000007E0D7ED017A9FED307A77EE877AC7ED3A
:10401000097AD7ED097AFCEEE77A17EE903A7B61E0
:104020007A69BB699A4202D300233B6202E07B6952
:1040300001333B627B695B0003F1006303F5C0233E
:10404000B3F9003007EE903AB8EEE77ADFED1F6A79
:10405000C7EE267AC7ED047A3B6A5B0003F1006382
:1040600003F5C023B3F9003007EE903AB8EEE77AD3
:10407000DFED166AC7EE267AC7ED037A97ED037A6D
:10408000D7ED047A77EE677AC7ED027A7B6907EE9F
:10409000903AF8EE677A97ED097A37EE677AD7EDBE
:1040A000027A67EE277A97ED047A77EE277AC7EDE2
:1040B000077AFB6907EE903AB0EE670A2C37BD46E7
:1040C0005DF8047B704700BF0000B4430000C842A5
:1040D00080B500AFFDF7F6FC0023184680BD000058
:1040E00080B584B000AF0346FB71FB79072B4BD83A
:1040F00001A252F823F000BF19410208274102082B
:104100003541020843410208514102085F4102085B
:104110006D4102087B41020800233B7300237B733F
:104120000023BB7331E000233B73FF237B73002329
:10413000BB732AE0FF233B7300237B730023BB7315
:1041400023E000233B7300237B73FF23BB731CE03E
:10415000FF233B73FF237B730023BB7315E0FF2317
:104160003B7300237B73FF23BB730EE000233B7381
:10417000FF237B73FF23BB7307E0FF233B73FF2306
:104180007B73FF23BB7300E000BF07F10C031846ED
:10419000FDF7E6FC002318461037BD4680BD00BF82
:1041A00080B500AFFDF78CFB384B00221A70374BFF
:1041B00011225A70354B01221A72344B344A5A601C
:1041C000334B00221A703148FDF7E8FB2F4B0022D9
:1041D0001A702E4B15225A702C4B01221A722B4B3F
:1041E0002B4A5A602A4B10221A702848FDF7D6FB3A
:1041F000264B00221A70254B12225A70234B0122A3
:104200001A72224B224A5A60214B05221A701F480B
:10421000FDF7C4FB01201CF06FFA1C4B00221A7042
:104220001A4B12225A70194B01221A72174B184A54
:104230005A60174B44221A701448FDF7AFFB134B1A
:1042400000221A70114B10225A70104B01221A7260
:104250000E4B0F4A5A600E4B28221A700B48FDF77E
:104260009DFB0A4B00221A70084B11225A70074B13
:1042700001221A72054B064A5A60054B24221A7015
:104280000248FDF78BFB0023184680BD5C4B0020E5
:10429000684B00200000000080B588B000AFF860D7
:1042A000B9607A603B608A4B00221A70884B2222E8
:1042B0005A70874B0C221A72854B864A5A60844882
:1042C000FDF7B6FB834BDB791B021AB2814B9B795E
:1042D0001BB21343FB837F4B5B7A1B021AB27D4BED
:1042E0001B7A1BB21343BB837A4BDB7A1B021AB2D5
:1042F000784B9B7A1BB213437B83764B5B781B0214
:104300001AB2744B1B781BB213433B83714BDB789F
:104310001B021AB26F4B9B781BB21343FB826D4B8F
:104320005B791B021AB26B4B1B791BB21343BB8226
:10433000B7F91E3007EE903AF8EEE77A17EE900ADA
:10434000FCF7AAF860A3D3E90023FCF7FDF80246C6
:104350000B46104619464FF000025F4BFCF71EFA61
:1043600002460B4610461946FCF7E6FB0246FB6880
:104370001A60B7F91C3007EE903AF8EEE77A17EEBC
:10438000900AFCF789F850A3D3E90023FCF7DCF886
:1043900002460B46104619464FF000024E4BFCF702
:1043A000FDF902460B4610461946FCF7C5FB0246CE
:1043B000BB681A60B7F91A3007EE903AF8EEE77A60
:1043C00017EE900AFCF768F83FA3D3E90023FCF747
:1043D000BBF802460B46104619464FF000023E4B12
:1043E000FCF7DCF902460B4610461946FCF7A4FB25
:1043F00002467B681A60B7F9183007EE903AF8EE7B
:10440000E77A17EE900AFCF747F84FF00002334BBB
:10441000FCF79AF802460B46104619464FF0000288
:104420002D4BFCF7BBF902460B4610461946FCF72C
:1044300083FB02463B681A60B7F9163007EE903AE4
:10444000F8EEE77A17EE900AFCF726F84FF0000234
:10445000224BFCF779F802460B46104619464FF0FE
:1044600000021D4BFCF79AF902460B46104619460E
:10447000FCF762FB0246BB6A1A60B7F9143007EE1C
:10448000903AF8EEE77A17EE900AFCF705F84FF04D
:104490000002124BFCF758F802460B46104619462C
:1044A0004FF000020C4BFCF779F902460B46104620
:1044B0001946FCF741FB0246FB6A1A6000231846C6
:1044C0002037BD4680BD00BF08AC1C5A643BBF3FCF
:1044D0005C4B0020684B002000408F400080314042
:1044E00080B584B000AF78600023FB600B4B5B6C41
:1044F0000A4A43F002035364084B5B6C03F0020367
:10450000FB60FB68002205212C201DF0D2FE2C2030
:104510001DF0EBFE00BF1037BD4680BD00380240E5
:1045200080B582B000AF7860064B5B6C054A23F023
:10453000020353642C201DF0E6FE00BF0837BD4681
:1045400080BD00BF0038024080B596B000AF07F1D3
:10455000440300221A605A609A60DA601A6107F117
:104560003C0300221A605A6007F1200300221A60FF
:104570005A609A60DA601A615A619A613B46202259
:104580000021184627F05AF93D4B3E4A1A603C4B31
:1045900000225A603A4B00229A60394B42F2D00214
:1045A000DA60374B00221A61354B00225A61344BD6
:1045B00000229A61324B344A1A66314B334A5A66AA
:1045C0002F4824F0EBFA0346002B01D016F02AFC0A
:1045D0002023FB6300233B6407F13C031946284872
:1045E00025F0DAFA0346002B01D016F01BFC7023ED
:1045F0003B6241F688537B620023BB620023FB626F
:1046000000233B6300237B630023BB6307F120038C
:10461000042219461A4824F07DFD0346002B01D0E0
:1046200016F000FC00233B604FF480637B600023A6
:10463000BB600023FB6000233B614FF400537B61B0
:104640000023FB613B4619460D4825F021FB03463C
:10465000002B01D016F0E6FB80237B640223BB64B1
:104660000023FB6400233B6503237B6507F14403C0
:10467000194607481EF0C6FD00BF5837BD4680BD2D
:104680004069002000040140E1440208214502087D
:104690000008024080B582B000AF0346FB71FFF70F
:1046A00053FFFEF7F7FA01224FF40041A2481FF032
:1046B00041F801224FF480419F481FF03BF89F4B87
:1046C0009F4A5A609D4B04221A709D4B00221A701B
:1046D0009B4B00225A709A4B00229A70984B0022F2
:1046E000DA709648FEF7F6FB944B954A5A60934B66
:1046F0002D221A70924B00221A70914B00225A7090
:104700008F4B00229A708E4B0022DA708B48FEF796
:1047100089FB8A4B8A4A5A60884B21221A70884B3F
:1047200000221A70864B00225A70854B00229A7024
:10473000834B0022DA708148FEF774FB7F4B804A7E
:104740005A607E4B35221A707D4B00221A707C4BCA
:1047500000225A707A4B10229A70794BC022DA707C
:10476000764B774A5A607548FEF75CFBFB79022B63
:1047700000F0E880022B00F35281002B02D0012BC5
:104780006DD04CE16D4B6C221A706D4B00221A708B
:104790006B4B00225A706A4B00229A70684B32228F
:1047A000DA706648FEF73EFB644B70221A70644B69
:1047B000C4221A70624B00225A70614B00229A7018
:1047C0005F4B0C22DA705D48FEF72CFB5B4B6D22D1
:1047D0001A705B4B00221A70594B06225A70584BC4
:1047E00060229A70564B0722DA705448FEF71AFB83
:1047F000524B13221A70524B00221A70504B002257
:104800005A704F4B03229A704D4B4022DA704B483E
:10481000FEF708FB494B14221A70494B00221A700C
:10482000474B00225A70464B02229A70444B00229A
:10483000DA704248FEF7F6FA404B15221A70404BE8
:1048400000221A703E4B00225A703D4B00229A7093
:104850003B4B1222DA703948FEF7E4FADFE0374BBF
:104860006C221A70364B00221A70354B00225A7097
:10487000334B00229A70324B3222DA702F48FEF707
:10488000D1FA2E4B70221A702D4BC4221A702C4B69
:1048900000225A702A4B00229A70294B0C22DA709F
:1048A0002648FEF7BFFA254B6D221A70244B0022D2
:1048B0001A70234B03225A70214B60229A70204BAE
:1048C0000722DA701D48FEF7ADFA1C4B13221A704E
:1048D0001B4B00221A701A4B00225A70184B0322ED
:1048E0009A70174B4022DA701448FEF79BFA134B6C
:1048F00014221A70124B00221A70114B00225A70A7
:104900000F4B02229A700E4B0022DA700B48FEF712
:1049100089FA0A4B15221A70094B00221A70084BAB
:1049200000225A70064B00229A70054B1622DA704C
:104930000248FEF777FA72E000040240784B00204C
:10494000804B0020564B6C221A70564B00221A7076
:10495000544B50225A70534B00229A70514B3222C2
:10496000DA704F48FEF75EFA4D4B70221A704D4BCD
:10497000C4221A704B4B00225A704A4B00229A7084
:10498000484B1422DA704648FEF74CFA444B6D222D
:104990001A70444B00221A70424B02225A70414B4B
:1049A00060229A703F4B0722DA703D48FEF73AFAD0
:1049B0003B4B13221A703B4B00221A70394B0022DA
:1049C0005A70384B03229A70364B4022DA703448C2
:1049D000FEF728FA324B14221A70324B00221A705A
:1049E000304B00225A702F4B02229A702D4B00221E
:1049F000DA702B48FEF716FA294B15221A70294B4C
:104A000000221A70274B00225A70264B00229A70FF
:104A1000244B1E22DA702248FEF704FA00BF204B16
:104A200011221A701F4B00221A701E4B00225A705E
:104A30001C4B00229A701B4B0A22DA701848FEF7B2
:104A4000F1F9174B00221A70164B00221A70154B01
:104A500000225A70134B50229A70124B1D22DA70AA
:104A60000F48FEF7DFF90E4B34221A700D4B00226F
:104A70001A700C4B00225A700A4B00229A70094B94
:104A80000022DA700648FEF7CDF900224FF480418B
:104A900005481EF04FFE002318460837BD4680BD6E
:104AA000784B0020804B00200004024080B582B08B
:104AB00000AF0346FB71FB79012B06D100224FF4B6
:104AC000804128481EF036FE47E001224FF4804125
:104AD00024481EF02FFE244B244A5A60224B2D22DC
:104AE0001A70224B00221A70204B00225A701F4B62
:104AF00000229A701D4B0022DA701B48FEF792F9D3
:104B0000194B1A4A5A60184B21221A70174B00226F
:104B10001A70164B00225A70144B00229A70134BD5
:104B20000022DA701048FEF77DF90F4B0F4A5A60E9
:104B30000D4B35221A700D4B00221A700B4B0022C0
:104B40005A700A4B10229A70084BC022DA70064B3A
:104B5000064A5A600448FEF765F9002318460837EC
:104B6000BD4680BD00040240784B0020804B0020F1
:104B700080B500AF00224FF4006103481EF0DAFD5B
:104B80000023184680BD00BF0008024080B500AF7A
:104B900001224FF4006103481EF0CCFD00231846AB
:104BA00080BD00BF00080240B0B586B000AF03462C
:104BB000FB801F23FB7400237B61FB8807EE903A88
:104BC000F8EE677A9FED4A7AC7EE876A16EE900A8A
:104BD000FBF762FC44A3D3E90023FBF7B5FC0246D4
:104BE0000B4614461D46434B1B681846FBF754FC06
:104BF00002460B4620462946FBF7A6FC02460B461A
:104C000010461946FBF798FF0346FB60FB7C013317
:104C100007EE903AF8EEE77A9FED377A67EE877AFB
:104C2000C7ED027AD7ED036A97ED027AC6EE877A6E
:104C3000FCEEE77A17EE903A7B617B69FF2B06D991
:104C40002E4B4FF480721A8000237B6103E07B6956
:104C50009AB22A4B1A802A4AFB7C1370FB7C07EE1F
:104C6000903AB8EEE77A274BD3ED007A67EE277AD1
:104C7000FCEEE77AC7ED007A3B78DAB2224B1A7085
:104C8000224B234A5A60214B0B221A70204B0022E0
:104C90001A701F4B00225A701D4B00229A707B69BC
:104CA000DAB21B4BDA701948FEF7BCF8174B184AFA
:104CB0005A60164B10221A70154B00221A70144BB2
:104CC00006225A700E4B1A78114B9A700E4B1A78B6
:104CD0000F4BDA700D48FEF7A5F800231846183779
:104CE000BD46B0BDAFF300808DD13AAA9AA0C640B0
:104CF00000007A44140400206666A63E18040020D2
:104D0000744B00201C040020754B0020784B0020C1
:104D1000804B002080B582B000AF78600C4B35220C
:104D20001A700B4B0B4A5A600948FEF7D3F8094B2F
:104D30009B781B021AB2074BDB781BB213431BB2E2
:104D40009AB27B681A80002318460837BD4680BD9A
:104D5000784B0020804B002080B582B000AF034626
:104D6000FB800F4B35221A700E4B00221A700D4B30
:104D700000225A70FB881B0A9BB2DAB2094B9A7068
:104D8000FB88DAB2074BDA70054B064A5A600448D2
:104D9000FEF748F8002318460837BD4680BD00BF1F
:104DA000784B0020804B002080B582B000AF786047
:104DB0003960104B6F221A700E4B0F4A5A600D4823
:104DC000FEF788F80C4B1B789B08DBB203F001035D
:104DD000DAB27B681A70084B1B785B08DBB203F011
:104DE0000103DAB23B681A70002318460837BD4643
:104DF00080BD00BF784B0020804B002080B582B082
:104E000000AF78607B689B681B0D002B02D07B682D
:104E1000984A9A607B68DB68DB0D002B02D07B68C8
:104E2000954ADA607B685B691B0C002B03D07B68BA
:104E30004FF6FF725A617B689B691B0C002B03D0F5
:104E40007B684FF6FF729A617B68DB691B0C002B55
:104E500003D07B684FF6FF72DA617B681B6A1B0C1C
:104E6000002B03D07B684FF6FF721A62834B23221C
:104E70001A707B685B681B0EDAB2814B1A707B6814
:104E80005B681B0CDAB27E4B5A707B685B681B0A4E
:104E9000DAB27B4B9A707B685B68DAB2784BDA7077
:104EA000764B774A5A607548FDF7BCFF734B252255
:104EB0001A707B689B681B0EDAB2714B1A707B68A4
:104EC0009B681B0CDAB26E4B5A707B689B681B0A9E
:104ED000DAB26B4B9A707B689B68DAB2684BDA7017
:104EE000664B674A5A606548FDF79CFF634B272273
:104EF0001A707B68DB681B0EDAB2614B1A707B6834
:104F0000DB681B0CDAB25E4B5A707B68DB681B0AED
:104F1000DAB25B4B9A707B68DB68DAB2584BDA70B6
:104F2000564B574A5A605548FDF77CFF534B2B228E
:104F30001A707B681B691B0EDAB2514B1A707B68C2
:104F40001B691B0CDAB24E4B5A707B681B691B0A3B
:104F5000DAB24B4B9A707B681B69DAB2484BDA7055
:104F6000464B474A5A604548FDF75CFF434B2422B5
:104F70001A707B685B691B0EDAB2414B1A707B6852
:104F80005B691B0CDAB23E4B5A707B685B691B0A8B
:104F9000DAB23B4B9A707B685B69DAB2384BDA70F5
:104FA000364B374A5A603548FDF73CFF334B2622D3
:104FB0001A707B689B691B0EDAB2314B1A707B68E2
:104FC0009B691B0CDAB22E4B5A707B689B691B0ADB
:104FD000DAB22B4B9A707B689B69DAB2284BDA7095
:104FE000264B274A5A602548FDF71CFF234B2A22EF
:104FF0001A707B68DB691B0EDAB2214B1A707B6872
:10500000DB691B0CDAB21E4B5A707B68DB691B0A2A
:10501000DAB21B4B9A707B68DB69DAB2184BDA7034
:10502000164B174A5A601548FDF7FCFE134B282211
:105030001A707B681B6A1B0EDAB2114B1A707B6800
:105040001B6A1B0CDAB20E4B5A707B681B6A1B0A78
:10505000DAB20B4B9A707B681B6ADAB2084BDA70D3
:10506000064B074A5A600548FDF7DCFE034B202239
:105070001A7007E0FFFF0F00FFFF7F00784B002052
:10508000804B0020194B00221A70184B00225A70D6
:10509000164B00229A707B681A78144BDA70144B06
:1050A000124A5A601248FDF7BDFE114B6C221A706D
:1050B0000F4B0E4A5A600E48FDF70CFF0B4B1B7846
:1050C0005BB223F00F035AB27B6893F824305BB2D3
:1050D00013435BB2DAB2054B1A700548FDF7A2FE26
:1050E000002318460837BD4680BD00BF804B002016
:1050F000784B002080B582B000AF7860104B2D2235
:105100001A707B681B16DAB20E4B1A707B681B1480
:10511000DAB20C4B5A707B681B12DAB2094B9A70E8
:105120007B68DAB2074BDA70054B064A5A600448CE
:10513000FDF778FE002318460837BD4680BD00BF46
:10514000784B0020804B002080B582B000AF7860A3
:10515000104B21221A707B681B16DAB20E4B1A70A4
:105160007B681B14DAB20C4B5A707B681B12DAB2E4
:10517000094B9A707B68DAB2074BDA70054B064A26
:105180005A600448FDF74EFE002318460837BD4616
:1051900080BD00BF784B0020804B002080B582B0DE
:1051A00000AF78600E4B21221A700D4B0D4A5A60E9
:1051B0000B48FDF78FFE0B4B1B781A06094B5B78EB
:1051C0001B041A43074B9B781B021343054AD278F2
:1051D0001A437B681A60002318460837BD4680BD15
:1051E000784B0020804B002080B582B000AF786003
:1051F000164B22221A70154B154A5A601348FDF7B8
:1052000069FE134B5B785BB2002B0EDA104B5B78B8
:105210001B0443F07F420E4B9B781B0213430C4A46
:10522000D2781A437B681A600BE0094B5B781A044A
:10523000074B9B781B021343054AD2781A437B68BD
:105240001A60002318460837BD4680BD784B002001
:10525000804B002000000000B0B586B000AFF860C1
:10526000B9607A600023FB745B4B6B221A705A4B57
:105270005A4A5A605848FDF72DFE584B9B7803F068
:105280000103002B06D0554BDB781BB263F0FF0304
:10529000FB8202E0514BDB78FB82504B1B7803F022
:1052A0000103002B06D04D4B5B781BB263F0FF036C
:1052B000BB8202E0494B5B78BB82474B6F221A707E
:1052C000454B464A5A604448FDF704FE434B1B7861
:1052D00023F07F03FB74414B5B7803F01F03BB7427
:1052E0003F4B1B881A46BB7C013302FB03F307EEDE
:1052F000903AF8EEE77A9FED3B7A67EE877A17EE01
:10530000900AFBF7C9F804460D46374BD3ED007AF7
:105310009FED367A67EE877A17EE900AFBF7BCF8B6
:105320002BA3D3E90023FBF70FF902460B462046D7
:105330002946FBF733FA02460B4610461946FBF79F
:10534000FBFB0246FB681A60254B1B881A46B7F91F
:10535000163002FB03F3BA7C013202FB03F307EEC3
:10536000903AF8EEE77A9FED1F7A67EE876A1E4B58
:10537000D3ED007A9FED1E7A27EE877AC6EE877A04
:10538000BB68C3ED007A164B1B881A46B7F9143078
:1053900002FB03F3BA7C013202FB03F307EE903AFF
:1053A000F8EEE77A9FED0F7A67EE876A0E4BD3ED42
:1053B000007A9FED0F7A27EE877AC6EE877A7B68B0
:1053C000C3ED007A002318461837BD46B0BD00BFB4
:1053D00039B4C876BE9FF63F784B0020804B002042
:1053E000180400206666A63E140400200000004653
:1053F0000000F84980B584B000AFF860B9607A6009
:10540000FB681B0C002B02D04FF6FF73FB60BB68E0
:105410001B0C002B02D04FF6FF73BB602C4B2B22D2
:105420001A707B681B0EDAB22A4B1A707B681B0C51
:10543000DAB2284B5A707B681B0ADAB2254B9A7095
:105440007B68DAB2234BDA70214B224A5A6020483B
:10545000FDF7E8FC1E4B2A221A70FB681B0EDAB21D
:105460001C4B1A70FB681B0CDAB21A4B5A70FB68A3
:105470001B0ADAB2174B9A70FB68DAB2154BDA7076
:10548000134B144A5A601248FDF7CCFC104B2822EB
:105490001A70BB681B0EDAB20E4B1A70BB681B0C7D
:1054A000DAB20C4B5A70BB681B0ADAB2094B9A701D
:1054B000BB68DAB2074BDA70054B064A5A600448FB
:1054C000FDF7B0FC002318461037BD4680BD00BF75
:1054D000784B0020804B002080B588B000AF034699
:1054E000FB710023FB600023FB610023BB610023F1
:1054F000BB6000237B6100233B61FB79022B1CD046
:10550000022B25DC002B02D0012B0BD020E00E2338
:10551000BB610A23FB610C23BB6032237B613D4BE3
:105520003B6115E01223BB610E23FB611023BB60BE
:1055300032237B61374B3B610AE01A23BB6118239E
:10554000FB611A23BB60344B7B61324B3B6100BF74
:10555000324B12221A70314B314A5A602F48FDF7F4
:10556000B9FC2F4B1B781A062D4B5B781B041A4392
:105570002B4B9B781B021343294AD2781343FB60C1
:10558000284B1B78002B20D1FA68FB699A423CD249
:10559000224B6C221A703B691B0EDAB2204B1A7038
:1055A0003B691B0CDAB21E4B5A703B691B0ADAB21C
:1055B0001B4B9A703B69DAB2194BDA701748FDF74A
:1055C00031FC184B01221A701FE0FA68BB699A423D
:1055D0001BD9124B6C221A707B691B0EDAB2104B6E
:1055E0001A707B691B0CDAB20D4B5A707B691B0A6F
:1055F000DAB20B4B9A707B69DAB2094BDA70074862
:10560000FDF710FC074B00221A70002318462037C4
:10561000BD4680BD3200040032005000784B0020AF
:10562000804B0020844B002080B584B000AF7860B0
:105630000023BB600023FB607B6893F90430B3F167
:10564000FF3F08D0012B0DD100224FF48071264876
:105650001EF070F806E001224FF4807122481EF01F
:1056600069F800BF7B681B68204AB2FBF3F3013B7B
:10567000BB60B868FAF7EEFE19A3D3E90023FAF786
:1056800063FF02460B4610461946FBF735FA034600
:10569000FB60174ABB68D362154AFB68936300BF7F
:1056A000144B6C221A70134B134A5A601148FDF7C1
:1056B00011FC114B1B785BB223F00F035AB27B68CD
:1056C0005B795BB213435BB2DAB20B4B1A700948D9
:1056D000FDF7A8FB002318461037BD4680BD00BF6C
:1056E000CDCCCCCCCCCCEC3F000802402048010013
:1056F00000040140784B0020804B002080B500AFB3
:1057000004210348FBF74CFC0023184680BD00BF72
:105710004069002080B500AF0421034823F09AFAC5
:105720000023184680BD00BF4069002080B500AF4F
:105730000421034823F056FB0023184680BD00BF18
:105740004069002080B582B000AF03463960FB712C
:10575000124AFB7913703B681A0E104B5B68D2B289
:105760001A703B681A0C0D4B5B680133D2B21A7089
:105770003B681A0A094B5B680233D2B21A70074BB6
:105780005B6803333A68D2B21A700448FDF74AFBEB
:10579000002318460837BD4680BD00BF784B002067
:1057A00080B582B000AF03463960FB71124AFB79C5
:1057B0001370114B114A5A600F48FDF78BFB0E4BCB
:1057C0005B681B781A060C4B5B6801331B781B0463
:1057D0001A43094B5B6802331B781B021343064ACA
:1057E00052680332127813431A463B681A6000234A
:1057F00018460837BD4680BD784B0020804B0020FE
:1058000080B483B000AF87ED010A054A7B6813605E
:1058100000BF18460C37BD465DF8047B704700BFDB
:105820001404002090B585B000AF78600023FB72AF
:10583000FBF7ACFE284B1B78002B01D0012346E080
:10584000264A7B681360254B1B684FF48062002159
:10585000184625F0F3FF224B00221A801F4B1B68CD
:105860001F4A53601E4B4FF480629A601C48FBF73E
:105870001FFF1A4B1B6808221A49184626F042F8E7
:105880000346002B01D0022321E00023FB6017E038
:10589000124B1A68FB68DB017F3313441C780F4BF3
:1058A0001B68FA68D20113447F21184600F0DAF928
:1058B00003469C4201D0032309E0FB680133FB60EF
:1058C000FB68072BE4DD044B01221A700023184605
:1058D0001437BD4690BD00BF854B0020884B00208B
:1058E0008C4B0020FCC3040880B584B000AF034695
:1058F0000A46FB8013467B710023BB73FB88DB09E0
:105900009BB2FB731D4B1B78002B01D1042330E0AD
:105910001B4AFB8813801B4B1A68FB881344184AE8
:105920005360174B01229A601548FBF789FE7B797B
:10593000012B1DD1134B1B68FA7BD20113447F212D
:10594000184600F08FF90346BB73FB7B01339BB213
:10595000DB019BB2013B9AB2094B1A80084A07F15E
:105960000E035360064B01229A600548FBF768FE60
:10597000002318461037BD4680BD00BF854B002070
:105980008C4B0020884B002080B586B000AF0346CA
:10599000B9607A60FB8100237B61FB8903F01F0201
:1059A0007B681344202B0CD8264AFB891380254A98
:1059B000BB685360234A7B6893602248FBF740FE34
:1059C0003AE0204AFB8913801E4ABB685360FB897A
:1059D00003F01F03C3F120031A461A4B9A601948BB
:1059E000FBF72EFE174B9B687B6121E07B699AB227
:1059F000FB8913449AB2134B1A80BA687B6913442B
:105A0000104A53607A687B69D31A202B05D87A68CC
:105A10007B69D31A0B4A936002E00A4B20229A60FA
:105A20000848FBF70DFE074B9B687A6913447B61BE
:105A30007A687B699A42D9D1002318461837BD4647
:105A400080BD00BF8C4B002080B584B000AF034602
:105A5000B9607A60FB81084AFB891380064ABB68FB
:105A60005360054A7B6893600348FBF721FE0023DF
:105A700018461037BD4680BD8C4B002080B582B0E3
:105A800000AF00237B6017E07B689BB25B019AB29A
:105A90000D4B1A807B685B010C4A13440A4A536021
:105AA000094B20229A600848FBF7CAFD00201AF033
:105AB00023FE7B6801337B607B681F2BE4DD0023C2
:105AC00018460837BD4680BD8C4B002000DF040817
:105AD00080B582B000AF2022FF213B4825F0AEFE0A
